{
  "contractName": "Marketplace",
  "abi": [
    {
      "inputs": [],
      "stateMutability": "nonpayable",
      "type": "constructor"
    },
    {
      "anonymous": false,
      "inputs": [
        {
          "indexed": false,
          "internalType": "address",
          "name": "nftContract",
          "type": "address"
        },
        {
          "indexed": false,
          "internalType": "uint256",
          "name": "tokenId",
          "type": "uint256"
        },
        {
          "indexed": false,
          "internalType": "address",
          "name": "seller",
          "type": "address"
        },
        {
          "indexed": false,
          "internalType": "address",
          "name": "owner",
          "type": "address"
        },
        {
          "indexed": false,
          "internalType": "uint256",
          "name": "price",
          "type": "uint256"
        }
      ],
      "name": "NFTListed",
      "type": "event"
    },
    {
      "anonymous": false,
      "inputs": [
        {
          "indexed": false,
          "internalType": "address",
          "name": "nftContract",
          "type": "address"
        },
        {
          "indexed": false,
          "internalType": "uint256",
          "name": "tokenId",
          "type": "uint256"
        },
        {
          "indexed": false,
          "internalType": "address",
          "name": "seller",
          "type": "address"
        },
        {
          "indexed": false,
          "internalType": "address",
          "name": "owner",
          "type": "address"
        },
        {
          "indexed": false,
          "internalType": "uint256",
          "name": "price",
          "type": "uint256"
        }
      ],
      "name": "NFTSold",
      "type": "event"
    },
    {
      "inputs": [],
      "name": "LISTING_FEE",
      "outputs": [
        {
          "internalType": "uint256",
          "name": "",
          "type": "uint256"
        }
      ],
      "stateMutability": "view",
      "type": "function",
      "constant": true
    },
    {
      "inputs": [
        {
          "internalType": "address",
          "name": "_nftContract",
          "type": "address"
        },
        {
          "internalType": "uint256",
          "name": "_tokenId",
          "type": "uint256"
        },
        {
          "internalType": "uint256",
          "name": "_price",
          "type": "uint256"
        }
      ],
      "name": "listNft",
      "outputs": [],
      "stateMutability": "payable",
      "type": "function",
      "payable": true
    },
    {
      "inputs": [
        {
          "internalType": "address",
          "name": "_nftContract",
          "type": "address"
        },
        {
          "internalType": "uint256",
          "name": "_tokenId",
          "type": "uint256"
        }
      ],
      "name": "buyNft",
      "outputs": [],
      "stateMutability": "payable",
      "type": "function",
      "payable": true
    },
    {
      "inputs": [
        {
          "internalType": "address",
          "name": "_nftContract",
          "type": "address"
        },
        {
          "internalType": "uint256",
          "name": "_tokenId",
          "type": "uint256"
        },
        {
          "internalType": "uint256",
          "name": "_price",
          "type": "uint256"
        }
      ],
      "name": "resellNft",
      "outputs": [],
      "stateMutability": "payable",
      "type": "function",
      "payable": true
    },
    {
      "inputs": [],
      "name": "getListingFee",
      "outputs": [
        {
          "internalType": "uint256",
          "name": "",
          "type": "uint256"
        }
      ],
      "stateMutability": "view",
      "type": "function",
      "constant": true
    },
    {
      "inputs": [],
      "name": "getListedNfts",
      "outputs": [
        {
          "components": [
            {
              "internalType": "address",
              "name": "nftContract",
              "type": "address"
            },
            {
              "internalType": "uint256",
              "name": "tokenId",
              "type": "uint256"
            },
            {
              "internalType": "address payable",
              "name": "seller",
              "type": "address"
            },
            {
              "internalType": "address payable",
              "name": "owner",
              "type": "address"
            },
            {
              "internalType": "uint256",
              "name": "price",
              "type": "uint256"
            },
            {
              "internalType": "bool",
              "name": "listed",
              "type": "bool"
            }
          ],
          "internalType": "struct Marketplace.NFT[]",
          "name": "",
          "type": "tuple[]"
        }
      ],
      "stateMutability": "view",
      "type": "function",
      "constant": true
    },
    {
      "inputs": [],
      "name": "getMyNfts",
      "outputs": [
        {
          "components": [
            {
              "internalType": "address",
              "name": "nftContract",
              "type": "address"
            },
            {
              "internalType": "uint256",
              "name": "tokenId",
              "type": "uint256"
            },
            {
              "internalType": "address payable",
              "name": "seller",
              "type": "address"
            },
            {
              "internalType": "address payable",
              "name": "owner",
              "type": "address"
            },
            {
              "internalType": "uint256",
              "name": "price",
              "type": "uint256"
            },
            {
              "internalType": "bool",
              "name": "listed",
              "type": "bool"
            }
          ],
          "internalType": "struct Marketplace.NFT[]",
          "name": "",
          "type": "tuple[]"
        }
      ],
      "stateMutability": "view",
      "type": "function",
      "constant": true
    },
    {
      "inputs": [],
      "name": "getMyListedNfts",
      "outputs": [
        {
          "components": [
            {
              "internalType": "address",
              "name": "nftContract",
              "type": "address"
            },
            {
              "internalType": "uint256",
              "name": "tokenId",
              "type": "uint256"
            },
            {
              "internalType": "address payable",
              "name": "seller",
              "type": "address"
            },
            {
              "internalType": "address payable",
              "name": "owner",
              "type": "address"
            },
            {
              "internalType": "uint256",
              "name": "price",
              "type": "uint256"
            },
            {
              "internalType": "bool",
              "name": "listed",
              "type": "bool"
            }
          ],
          "internalType": "struct Marketplace.NFT[]",
          "name": "",
          "type": "tuple[]"
        }
      ],
      "stateMutability": "view",
      "type": "function",
      "constant": true
    }
  ],
  "bytecode": "0x6080604052655af3107a400060035534801561001a57600080fd5b50600160008190555033600460006101000a81548173ffffffffffffffffffffffffffffffffffffffff021916908373ffffffffffffffffffffffffffffffffffffffff160217905550611d2b806100736000396000f3fe608060405260043610610098576000357c0100000000000000000000000000000000000000000000000000000000900480634ddf4f8f1161006b5780634ddf4f8f1461013a5780638d6cb3fb14610156578063b8fe6abe14610181578063c922b17c146101ac57610098565b8063047b07bf1461009d5780631f4cc4db146100c85780632b86ae38146100f357806334f5b6241461011e575b600080fd5b3480156100a957600080fd5b506100b26101c8565b6040516100bf9190611685565b60405180910390f35b3480156100d457600080fd5b506100dd6104fb565b6040516100ea9190611685565b60405180910390f35b3480156100ff57600080fd5b506101086108a0565b60405161011591906116b6565b60405180910390f35b6101386004803603810190610133919061172e565b6108a6565b005b610154600480360381019061014f9190611781565b610b1f565b005b34801561016257600080fd5b5061016b610e13565b6040516101789190611685565b60405180910390f35b34801561018d57600080fd5b5061019661107b565b6040516101a391906116b6565b60405180910390f35b6101c660048036038101906101c1919061172e565b611085565b005b606060006101d660026113cb565b90506000805b8281101561027b573373ffffffffffffffffffffffffffffffffffffffff166005600060018461020c91906117f0565b815260200190815260200160002060030160009054906101000a900473ffffffffffffffffffffffffffffffffffffffff1673ffffffffffffffffffffffffffffffffffffffff160361026857818061026490611846565b9250505b808061027390611846565b9150506101dc565b5060008167ffffffffffffffff8111156102985761029761188e565b5b6040519080825280602002602001820160405280156102d157816020015b6102be61144b565b8152602001906001900390816102b65790505b5090506000805b848110156104f0573373ffffffffffffffffffffffffffffffffffffffff166005600060018461030891906117f0565b815260200190815260200160002060030160009054906101000a900473ffffffffffffffffffffffffffffffffffffffff1673ffffffffffffffffffffffffffffffffffffffff16036104dd576005600060018361036691906117f0565b81526020019081526020016000206040518060c00160405290816000820160009054906101000a900473ffffffffffffffffffffffffffffffffffffffff1673ffffffffffffffffffffffffffffffffffffffff1673ffffffffffffffffffffffffffffffffffffffff168152602001600182015481526020016002820160009054906101000a900473ffffffffffffffffffffffffffffffffffffffff1673ffffffffffffffffffffffffffffffffffffffff1673ffffffffffffffffffffffffffffffffffffffff1681526020016003820160009054906101000a900473ffffffffffffffffffffffffffffffffffffffff1673ffffffffffffffffffffffffffffffffffffffff1673ffffffffffffffffffffffffffffffffffffffff168152602001600482015481526020016005820160009054906101000a900460ff1615151515815250508383815181106104c3576104c26118bd565b5b602002602001018190525081806104d990611846565b9250505b80806104e890611846565b9150506102d8565b508194505050505090565b6060600061050960026113cb565b90506000805b828110156105e7573373ffffffffffffffffffffffffffffffffffffffff166005600060018461053f91906117f0565b815260200190815260200160002060020160009054906101000a900473ffffffffffffffffffffffffffffffffffffffff1673ffffffffffffffffffffffffffffffffffffffff161480156105c05750600560006001836105a091906117f0565b815260200190815260200160002060050160009054906101000a900460ff165b156105d45781806105d090611846565b9250505b80806105df90611846565b91505061050f565b5060008167ffffffffffffffff8111156106045761060361188e565b5b60405190808252806020026020018201604052801561063d57816020015b61062a61144b565b8152602001906001900390816106225790505b5090506000805b84811015610895573373ffffffffffffffffffffffffffffffffffffffff166005600060018461067491906117f0565b815260200190815260200160002060020160009054906101000a900473ffffffffffffffffffffffffffffffffffffffff1673ffffffffffffffffffffffffffffffffffffffff161480156106f55750600560006001836106d591906117f0565b815260200190815260200160002060050160009054906101000a900460ff165b15610882576005600060018361070b91906117f0565b81526020019081526020016000206040518060c00160405290816000820160009054906101000a900473ffffffffffffffffffffffffffffffffffffffff1673ffffffffffffffffffffffffffffffffffffffff1673ffffffffffffffffffffffffffffffffffffffff168152602001600182015481526020016002820160009054906101000a900473ffffffffffffffffffffffffffffffffffffffff1673ffffffffffffffffffffffffffffffffffffffff1673ffffffffffffffffffffffffffffffffffffffff1681526020016003820160009054906101000a900473ffffffffffffffffffffffffffffffffffffffff1673ffffffffffffffffffffffffffffffffffffffff1673ffffffffffffffffffffffffffffffffffffffff168152602001600482015481526020016005820160009054906101000a900460ff161515151581525050838381518110610868576108676118bd565b5b6020026020010181905250818061087e90611846565b9250505b808061088d90611846565b915050610644565b508194505050505090565b60035481565b6002600054036108eb576040517f08c379a00000000000000000000000000000000000000000000000000000000081526004016108e290611949565b60405180910390fd5b600260008190555060008111610936576040517f08c379a000000000000000000000000000000000000000000000000000000000815260040161092d906119b5565b60405180910390fd5b600354341461097a576040517f08c379a000000000000000000000000000000000000000000000000000000000815260040161097190611a21565b60405180910390fd5b8273ffffffffffffffffffffffffffffffffffffffff166323b872dd3330856040518463ffffffff167c01000000000000000000000000000000000000000000000000000000000281526004016109d393929190611a50565b600060405180830381600087803b1580156109ed57600080fd5b505af1158015610a01573d6000803e3d6000fd5b505050506000600560008481526020019081526020016000209050338160020160006101000a81548173ffffffffffffffffffffffffffffffffffffffff021916908373ffffffffffffffffffffffffffffffffffffffff160217905550308160030160006101000a81548173ffffffffffffffffffffffffffffffffffffffff021916908373ffffffffffffffffffffffffffffffffffffffff16021790555060018160050160006101000a81548160ff021916908315150217905550818160040181905550610ad260016113d9565b7fa0c6c0d02d86fdacecbaa5fdf5894bab204e31a778250474108540733a9b8d198484333086604051610b09959493929190611a87565b60405180910390a1506001600081905550505050565b600260005403610b64576040517f08c379a0000000000000000000000000000000000000000000000000000000008152600401610b5b90611949565b60405180910390fd5b600260008190555060006005600083815260200190815260200160002090508060040154341015610bca576040517f08c379a0000000000000000000000000000000000000000000000000000000008152600401610bc190611b4c565b60405180910390fd5b60003390508160020160009054906101000a900473ffffffffffffffffffffffffffffffffffffffff1673ffffffffffffffffffffffffffffffffffffffff166108fc349081150290604051600060405180830381858888f19350505050158015610c39573d6000803e3d6000fd5b508373ffffffffffffffffffffffffffffffffffffffff166323b872dd308385600101546040518463ffffffff167c0100000000000000000000000000000000000000000000000000000000028152600401610c9793929190611bcb565b600060405180830381600087803b158015610cb157600080fd5b505af1158015610cc5573d6000803e3d6000fd5b50505050600460009054906101000a900473ffffffffffffffffffffffffffffffffffffffff1673ffffffffffffffffffffffffffffffffffffffff166108fc6003549081150290604051600060405180830381858888f19350505050158015610d33573d6000803e3d6000fd5b50808260030160006101000a81548173ffffffffffffffffffffffffffffffffffffffff021916908373ffffffffffffffffffffffffffffffffffffffff16021790555060008260050160006101000a81548160ff021916908315150217905550610d9e6001611435565b7f16f1dbd97e6bf646d429ed186cce832f1f7fd9907814293b83181e9970ab7bd28483600101548460020160009054906101000a900473ffffffffffffffffffffffffffffffffffffffff168434604051610dfd959493929190611c02565b60405180910390a1505060016000819055505050565b60606000610e2160026113cb565b90506000610e2f60016113cb565b82610e3a9190611c55565b905060008167ffffffffffffffff811115610e5857610e5761188e565b5b604051908082528060200260200182016040528015610e9157816020015b610e7e61144b565b815260200190600190039081610e765790505b5090506000805b848110156110705760056000600183610eb191906117f0565b815260200190815260200160002060050160009054906101000a900460ff161561105d5760056000600183610ee691906117f0565b81526020019081526020016000206040518060c00160405290816000820160009054906101000a900473ffffffffffffffffffffffffffffffffffffffff1673ffffffffffffffffffffffffffffffffffffffff1673ffffffffffffffffffffffffffffffffffffffff168152602001600182015481526020016002820160009054906101000a900473ffffffffffffffffffffffffffffffffffffffff1673ffffffffffffffffffffffffffffffffffffffff1673ffffffffffffffffffffffffffffffffffffffff1681526020016003820160009054906101000a900473ffffffffffffffffffffffffffffffffffffffff1673ffffffffffffffffffffffffffffffffffffffff1673ffffffffffffffffffffffffffffffffffffffff168152602001600482015481526020016005820160009054906101000a900460ff161515151581525050838381518110611043576110426118bd565b5b6020026020010181905250818061105990611846565b9250505b808061106890611846565b915050610e98565b508194505050505090565b6000600354905090565b6002600054036110ca576040517f08c379a00000000000000000000000000000000000000000000000000000000081526004016110c190611949565b60405180910390fd5b600260008190555060008111611115576040517f08c379a000000000000000000000000000000000000000000000000000000000815260040161110c906119b5565b60405180910390fd5b6003543414611159576040517f08c379a000000000000000000000000000000000000000000000000000000000815260040161115090611a21565b60405180910390fd5b8273ffffffffffffffffffffffffffffffffffffffff166323b872dd3330856040518463ffffffff167c01000000000000000000000000000000000000000000000000000000000281526004016111b293929190611a50565b600060405180830381600087803b1580156111cc57600080fd5b505af11580156111e0573d6000803e3d6000fd5b505050506111ee6002611435565b6040518060c001604052808473ffffffffffffffffffffffffffffffffffffffff1681526020018381526020013373ffffffffffffffffffffffffffffffffffffffff1681526020013073ffffffffffffffffffffffffffffffffffffffff168152602001828152602001600115158152506005600084815260200190815260200160002060008201518160000160006101000a81548173ffffffffffffffffffffffffffffffffffffffff021916908373ffffffffffffffffffffffffffffffffffffffff1602179055506020820151816001015560408201518160020160006101000a81548173ffffffffffffffffffffffffffffffffffffffff021916908373ffffffffffffffffffffffffffffffffffffffff16021790555060608201518160030160006101000a81548173ffffffffffffffffffffffffffffffffffffffff021916908373ffffffffffffffffffffffffffffffffffffffff1602179055506080820151816004015560a08201518160050160006101000a81548160ff0219169083151502179055509050507fa0c6c0d02d86fdacecbaa5fdf5894bab204e31a778250474108540733a9b8d1983833330856040516113b6959493929190611a87565b60405180910390a16001600081905550505050565b600081600001549050919050565b60008160000154905060008111611425576040517f08c379a000000000000000000000000000000000000000000000000000000000815260040161141c90611cd5565b60405180910390fd5b6001810382600001819055505050565b6001816000016000828254019250508190555050565b6040518060c00160405280600073ffffffffffffffffffffffffffffffffffffffff16815260200160008152602001600073ffffffffffffffffffffffffffffffffffffffff168152602001600073ffffffffffffffffffffffffffffffffffffffff168152602001600081526020016000151581525090565b600081519050919050565b600082825260208201905092915050565b6000819050602082019050919050565b600073ffffffffffffffffffffffffffffffffffffffff82169050919050565b600061151c826114f1565b9050919050565b61152c81611511565b82525050565b6000819050919050565b61154581611532565b82525050565b6000611556826114f1565b9050919050565b6115668161154b565b82525050565b60008115159050919050565b6115818161156c565b82525050565b60c08201600082015161159d6000850182611523565b5060208201516115b0602085018261153c565b5060408201516115c3604085018261155d565b5060608201516115d6606085018261155d565b5060808201516115e9608085018261153c565b5060a08201516115fc60a0850182611578565b50505050565b600061160e8383611587565b60c08301905092915050565b6000602082019050919050565b6000611632826114c5565b61163c81856114d0565b9350611647836114e1565b8060005b8381101561167857815161165f8882611602565b975061166a8361161a565b92505060018101905061164b565b5085935050505092915050565b6000602082019050818103600083015261169f8184611627565b905092915050565b6116b081611532565b82525050565b60006020820190506116cb60008301846116a7565b92915050565b600080fd5b6116df81611511565b81146116ea57600080fd5b50565b6000813590506116fc816116d6565b92915050565b61170b81611532565b811461171657600080fd5b50565b60008135905061172881611702565b92915050565b600080600060608486031215611747576117466116d1565b5b6000611755868287016116ed565b935050602061176686828701611719565b925050604061177786828701611719565b9150509250925092565b60008060408385031215611798576117976116d1565b5b60006117a6858286016116ed565b92505060206117b785828601611719565b9150509250929050565b7f4e487b7100000000000000000000000000000000000000000000000000000000600052601160045260246000fd5b60006117fb82611532565b915061180683611532565b9250827fffffffffffffffffffffffffffffffffffffffffffffffffffffffffffffffff0382111561183b5761183a6117c1565b5b828201905092915050565b600061185182611532565b91507fffffffffffffffffffffffffffffffffffffffffffffffffffffffffffffffff8203611883576118826117c1565b5b600182019050919050565b7f4e487b7100000000000000000000000000000000000000000000000000000000600052604160045260246000fd5b7f4e487b7100000000000000000000000000000000000000000000000000000000600052603260045260246000fd5b600082825260208201905092915050565b7f5265656e7472616e637947756172643a207265656e7472616e742063616c6c00600082015250565b6000611933601f836118ec565b915061193e826118fd565b602082019050919050565b6000602082019050818103600083015261196281611926565b9050919050565b7f5072696365206d757374206265206174206c6561737420312077656900000000600082015250565b600061199f601c836118ec565b91506119aa82611969565b602082019050919050565b600060208201905081810360008301526119ce81611992565b9050919050565b7f4e6f7420656e6f75676820657468657220666f72206c697374696e6720666565600082015250565b6000611a0b6020836118ec565b9150611a16826119d5565b602082019050919050565b60006020820190508181036000830152611a3a816119fe565b9050919050565b611a4a81611511565b82525050565b6000606082019050611a656000830186611a41565b611a726020830185611a41565b611a7f60408301846116a7565b949350505050565b600060a082019050611a9c6000830188611a41565b611aa960208301876116a7565b611ab66040830186611a41565b611ac36060830185611a41565b611ad060808301846116a7565b9695505050505050565b7f4e6f7420656e6f75676820657468657220746f20636f7665722061736b696e6760008201527f2070726963650000000000000000000000000000000000000000000000000000602082015250565b6000611b366026836118ec565b9150611b4182611ada565b604082019050919050565b60006020820190508181036000830152611b6581611b29565b9050919050565b6000819050919050565b6000611b91611b8c611b87846114f1565b611b6c565b6114f1565b9050919050565b6000611ba382611b76565b9050919050565b6000611bb582611b98565b9050919050565b611bc581611baa565b82525050565b6000606082019050611be06000830186611a41565b611bed6020830185611bbc565b611bfa60408301846116a7565b949350505050565b600060a082019050611c176000830188611a41565b611c2460208301876116a7565b611c316040830186611bbc565b611c3e6060830185611bbc565b611c4b60808301846116a7565b9695505050505050565b6000611c6082611532565b9150611c6b83611532565b925082821015611c7e57611c7d6117c1565b5b828203905092915050565b7f436f756e7465723a2064656372656d656e74206f766572666c6f770000000000600082015250565b6000611cbf601b836118ec565b9150611cca82611c89565b602082019050919050565b60006020820190508181036000830152611cee81611cb2565b905091905056fea264697066735822122053a6f60f4f4a0f745b9ed3efa734e49539bce1b9e1eabcf5689e768d550492dc64736f6c634300080f0033",
  "immutableReferences": {},
  "source": "// SPDX-License-Identifier: MIT\npragma solidity ^0.8.0;\n\nimport \"@openzeppelin/contracts/token/ERC721/extensions/ERC721URIStorage.sol\";\nimport \"@openzeppelin/contracts/security/ReentrancyGuard.sol\";\nimport \"@openzeppelin/contracts/utils/Counters.sol\";\n\ncontract Marketplace is ReentrancyGuard {\n    using Counters for Counters.Counter;\n\n    // increments when a NFT is sold and decremented when a NFT is relisted\n    Counters.Counter private _nftsSold;\n\n    // tracks how many NFTs have been listed\n    Counters.Counter private _nftCount;\n\n    // taken from the seller and transferred to the marketplace contract owner whenever an NFT is sold\n    uint256 public LISTING_FEE = 0.0001 ether;\n\n    // the Marketplace contract owner, so that we know who to pay the listing fee to\n    address payable private _marketOwner;\n\n    // associates the unique tokenId to a the NFT struct\n    mapping(uint256 => NFT) private _idToNFT;\n\n    // stores relevant information for an NFT listed in the marketplace\n    struct NFT {\n        address nftContract;\n        uint256 tokenId;\n        address payable seller;\n        address payable owner;\n        uint256 price;\n        bool listed;\n    }\n\n    // emitted every time a NFT is listed\n    event NFTListed(\n        address nftContract,\n        uint256 tokenId,\n        address seller,\n        address owner,\n        uint256 price\n    );\n\n    // emitted every time a NFT is sold\n    event NFTSold(\n        address nftContract,\n        uint256 tokenId,\n        address seller,\n        address owner,\n        uint256 price\n    );\n\n    constructor() {\n        _marketOwner = payable(msg.sender);\n    }\n\n    // List the NFT on the marketplace\n    function listNft(\n        address _nftContract,\n        uint256 _tokenId,\n        uint256 _price\n    ) public payable nonReentrant {\n        require(_price > 0, \"Price must be at least 1 wei\");\n        require(msg.value == LISTING_FEE, \"Not enough ether for listing fee\");\n\n        IERC721(_nftContract).transferFrom(msg.sender, address(this), _tokenId);\n\n        _nftCount.increment();\n\n        _idToNFT[_tokenId] = NFT(\n            _nftContract,\n            _tokenId,\n            payable(msg.sender),\n            payable(address(this)),\n            _price,\n            true\n        );\n\n        emit NFTListed(\n            _nftContract,\n            _tokenId,\n            msg.sender,\n            address(this),\n            _price\n        );\n    }\n\n    // Buy an NFT\n    function buyNft(address _nftContract, uint256 _tokenId)\n        public\n        payable\n        nonReentrant\n    {\n        NFT storage nft = _idToNFT[_tokenId];\n        require(\n            msg.value >= nft.price,\n            \"Not enough ether to cover asking price\"\n        );\n\n        address payable buyer = payable(msg.sender);\n        payable(nft.seller).transfer(msg.value);\n        IERC721(_nftContract).transferFrom(address(this), buyer, nft.tokenId);\n        _marketOwner.transfer(LISTING_FEE);\n        nft.owner = buyer;\n        nft.listed = false;\n\n        _nftsSold.increment();\n        emit NFTSold(_nftContract, nft.tokenId, nft.seller, buyer, msg.value);\n    }\n\n    // Resell an NFT purchased from the marketplace\n    function resellNft(\n        address _nftContract,\n        uint256 _tokenId,\n        uint256 _price\n    ) public payable nonReentrant {\n        require(_price > 0, \"Price must be at least 1 wei\");\n        require(msg.value == LISTING_FEE, \"Not enough ether for listing fee\");\n\n        IERC721(_nftContract).transferFrom(msg.sender, address(this), _tokenId);\n\n        NFT storage nft = _idToNFT[_tokenId];\n        nft.seller = payable(msg.sender);\n        nft.owner = payable(address(this));\n        nft.listed = true;\n        nft.price = _price;\n\n        _nftsSold.decrement();\n        emit NFTListed(\n            _nftContract,\n            _tokenId,\n            msg.sender,\n            address(this),\n            _price\n        );\n    }\n\n    function getListingFee() public view returns (uint256) {\n        return LISTING_FEE;\n    }\n\n    function getListedNfts() public view returns (NFT[] memory) {\n        uint256 nftCount = _nftCount.current();\n        uint256 unsoldNftsCount = nftCount - _nftsSold.current();\n\n        NFT[] memory nfts = new NFT[](unsoldNftsCount);\n        uint256 nftsIndex = 0;\n        for (uint256 i = 0; i < nftCount; i++) {\n            if (_idToNFT[i + 1].listed) {\n                nfts[nftsIndex] = _idToNFT[i + 1];\n                nftsIndex++;\n            }\n        }\n        return nfts;\n    }\n\n    function getMyNfts() public view returns (NFT[] memory) {\n        uint256 nftCount = _nftCount.current();\n        uint256 myNftCount = 0;\n        for (uint256 i = 0; i < nftCount; i++) {\n            if (_idToNFT[i + 1].owner == msg.sender) {\n                myNftCount++;\n            }\n        }\n\n        NFT[] memory nfts = new NFT[](myNftCount);\n        uint256 nftsIndex = 0;\n        for (uint256 i = 0; i < nftCount; i++) {\n            if (_idToNFT[i + 1].owner == msg.sender) {\n                nfts[nftsIndex] = _idToNFT[i + 1];\n                nftsIndex++;\n            }\n        }\n        return nfts;\n    }\n\n    function getMyListedNfts() public view returns (NFT[] memory) {\n        uint256 nftCount = _nftCount.current();\n        uint256 myListedNftCount = 0;\n        for (uint256 i = 0; i < nftCount; i++) {\n            if (\n                _idToNFT[i + 1].seller == msg.sender && _idToNFT[i + 1].listed\n            ) {\n                myListedNftCount++;\n            }\n        }\n\n        NFT[] memory nfts = new NFT[](myListedNftCount);\n        uint256 nftsIndex = 0;\n        for (uint256 i = 0; i < nftCount; i++) {\n            if (\n                _idToNFT[i + 1].seller == msg.sender && _idToNFT[i + 1].listed\n            ) {\n                nfts[nftsIndex] = _idToNFT[i + 1];\n                nftsIndex++;\n            }\n        }\n        return nfts;\n    }\n}\n",
  "sourcePath": "/Users/sharynneazhar/Development/cinnamon/server/contracts/Marketplace.sol",
  "compiler": {
    "name": "solc",
    "version": "0.8.15+commit.e14f2714.Emscripten.clang"
  },
  "schemaVersion": "3.4.8",
  "updatedAt": "2022-08-26T23:04:23.773Z",
  "networkType": "ethereum",
  "devdoc": {
    "kind": "dev",
    "methods": {},
    "version": 1
  },
  "userdoc": {
    "kind": "user",
    "methods": {},
    "version": 1
  }
}